:020000040800F2
:100000006F00C009000000000000000000000000B8
:1000100000000000000000000000000000000000E0
:1000200000000000000000000000000000000000D0
:1000300000000000000000000000000000000000C0
:1000400000000000000000000000000000000000B0
:1000500000000000000000000000000000000000A0
:100060000000000000000000000000000000000090
:100070000000000000000000000000000000000080
:100080000000000000000000000000000000000070
:1000900000000000000000000000000037110020F8
:1000A000130101809302000093E2320073905230FA
:1000B0009302C00B739012347300203013000000C1
:1000C000371502401305850183250500B75300004D
:1000D00093835383B3E575002320B50037150240A1
:1000E0001305C5018325050093E515002320B50000
:1000F000371501401305054083250500B70301F0BE
:100100009383F3FFB3F57500B703B408938303003B
:10011000B3E575002320B500371501401305C54030
:100120008325050093030004B3E575002320B00088
:10013000374501401305858083250500930310345E
:10014000B3E575002320B500374501401305C58090
:1001500083250500B72300009383C300B3E5750032
:100160002320B500370500401305850183250500D0
:1001700093E515202320B50037050040130505023F
:100180008325050093E505022320B50037050040CF
:10019000130585008325050093E545052320B5005B
:1001A00037050040130505012320050037050040F1
:1001B00013058502930570002320B5003705004024
:1001C0001305C502B70501009385F5FF2320B5008F
:1001D00037050040130505028325050093E5150149
:1001E0002320B500370500401305050083250500D1
:1001F00093E515002320B5001305C0410304050055
:1002000063080400EF008018130515006FF01FFF4E
:1002100037050040130585038325050037050020B9
:10022000130505012320B5003705004013054503DC
:100230008325050037050020130545012320B5005F
:100240003705002013050501B705002093854501FA
:100250008323050003A305003303734023206500B7
:100260003705002013058501232065003705002090
:100270001305C501930540062320B500EF000023B8
:10028000370500201305C50083230500B38575409D
:1002900037050020130505012320B5003705002090
:1002A0001305450183250500370500201305C50109
:1002B0002320B5003705002013058501B7450F0041
:1002C000938505242320B500EF00401E370500204C
:1002D0001305C500832505003705002013054501DA
:1002E0002320B50037050020130505011303400046
:1002F00083033500EF0080141305F5FF1303F3FFAC
:10030000E31803FE13040002EF0040081304500238
:10031000EF00C0071304D000EF0040071304A00053
:10032000EF00C00637050020130545011303400008
:1003300083033500EF0080101305F5FF1303F3FF6F
:10034000E31803FE13040002EF00400413048004CA
:10035000EF00C0031304A007EF0040031304D00014
:10036000EF00C0021304A000EF00400213040002DB
:10037000EF00C0011304D000EF0040011304A000FF
:10038000EF00C000EF00C0066FF09FE8130101FF0F
:1003900023201100232271002324A1002326B10071
:1003A00037450140130505808325050093F50508B1
:1003B000E38E05FC93030400374501401305458097
:1003C000230075003745014013050580832505008E
:1003D00093F50504E38805FE8325C100032581000C
:1003E0008323410083200100130101016780000085
:1003F000130181FF232011002322610037831E0097
:10040000130303481303F3FFE31E03FE032341001A
:1004100083200100130181006780000053414A4599
:1004200045562053414E4B4152414E2043483332B2
:100430005630303320554152540D0A001301C1FF8C
:10044000232011009386030093F6060F93D64600EF
:1004500013A7A600630A070093E6060313840600A9
:10046000EFF0DFF26F00000193867603138406003D
:10047000EFF0DFF19386030093F6F60013A7A600D2
:10048000630A070093E6060313840600EFF01FF0EB
:100490006F0000019386760313840600EFF01FEFD0
:1004A000832001001301410067800000130181FED9
:1004B000232AB1002328C1002326D1002324E100F0
:1004C0002322F100232061001303000093030000A6
:1004D00013060000130700009307000037050020F3
:1004E0001305850183250500370500201305C50187
:1004F00083260500B387D54033B3D500631A0300C4
:1005000093850700B307E640938313006FF09FFEC7
:10051000B70200209382C20023A0720003230100CF
:1005200083274100032781008326C10003260101A0
:0C05300083254101130181016780000058
:00000001FF
